{
  "contractName": "LiquidityPool",
  "abi": [
    {
      "inputs": [
        {
          "internalType": "address",
          "name": "",
          "type": "address"
        }
      ],
      "name": "poolBalance",
      "outputs": [
        {
          "internalType": "uint256",
          "name": "",
          "type": "uint256"
        }
      ],
      "stateMutability": "view",
      "type": "function",
      "constant": true
    },
    {
      "inputs": [],
      "name": "provideLiquidity",
      "outputs": [],
      "stateMutability": "payable",
      "type": "function",
      "payable": true
    },
    {
      "inputs": [
        {
          "internalType": "uint256",
          "name": "amount",
          "type": "uint256"
        }
      ],
      "name": "withdrawLiquidity",
      "outputs": [],
      "stateMutability": "nonpayable",
      "type": "function"
    }
  ],
  "bytecode": "0x608060405234801561001057600080fd5b5061054b806100206000396000f3fe6080604052600436106100345760003560e01c80630a861f2a1461003957806360c97b221461006257806368abb5e01461006c575b600080fd5b34801561004557600080fd5b50610060600480360381019061005b91906102ce565b6100a9565b005b61006a6101c9565b005b34801561007857600080fd5b50610093600480360381019061008e91906102a5565b610263565b6040516100a091906103c6565b60405180910390f35b806000803373ffffffffffffffffffffffffffffffffffffffff1673ffffffffffffffffffffffffffffffffffffffff16815260200190815260200160002054101561012a576040517f08c379a0000000000000000000000000000000000000000000000000000000008152600401610121906103a6565b60405180910390fd5b806000803373ffffffffffffffffffffffffffffffffffffffff1673ffffffffffffffffffffffffffffffffffffffff16815260200190815260200160002060008282546101789190610448565b925050819055503373ffffffffffffffffffffffffffffffffffffffff166108fc829081150290604051600060405180830381858888f193505050501580156101c5573d6000803e3d6000fd5b5050565b6000341161020c576040517f08c379a000000000000000000000000000000000000000000000000000000000815260040161020390610386565b60405180910390fd5b346000803373ffffffffffffffffffffffffffffffffffffffff1673ffffffffffffffffffffffffffffffffffffffff168152602001908152602001600020600082825461025a91906103f2565b92505081905550565b60006020528060005260406000206000915090505481565b60008135905061028a816104e7565b92915050565b60008135905061029f816104fe565b92915050565b6000602082840312156102b757600080fd5b60006102c58482850161027b565b91505092915050565b6000602082840312156102e057600080fd5b60006102ee84828501610290565b91505092915050565b60006103046016836103e1565b91507f4d7573742070726f76696465206c6971756964697479000000000000000000006000830152602082019050919050565b60006103446014836103e1565b91507f496e73756666696369656e742062616c616e63650000000000000000000000006000830152602082019050919050565b610380816104ae565b82525050565b6000602082019050818103600083015261039f816102f7565b9050919050565b600060208201905081810360008301526103bf81610337565b9050919050565b60006020820190506103db6000830184610377565b92915050565b600082825260208201905092915050565b60006103fd826104ae565b9150610408836104ae565b9250827fffffffffffffffffffffffffffffffffffffffffffffffffffffffffffffffff0382111561043d5761043c6104b8565b5b828201905092915050565b6000610453826104ae565b915061045e836104ae565b925082821015610471576104706104b8565b5b828203905092915050565b60006104878261048e565b9050919050565b600073ffffffffffffffffffffffffffffffffffffffff82169050919050565b6000819050919050565b7f4e487b7100000000000000000000000000000000000000000000000000000000600052601160045260246000fd5b6104f08161047c565b81146104fb57600080fd5b50565b610507816104ae565b811461051257600080fd5b5056fea2646970667358221220c650bfa24b12c360407910ca59ff1468ee95c5ee1a24e388400cb990f31310a564736f6c63430008000033",
  "immutableReferences": {},
  "source": "// SPDX-License-Identifier: MIT\r\npragma solidity ^0.8.0;\r\n\r\ncontract LiquidityPool {\r\n    mapping(address => uint256) public poolBalance;\r\n\r\n    function provideLiquidity() public payable {\r\n        require(msg.value > 0, \"Must provide liquidity\");\r\n\r\n        poolBalance[msg.sender] += msg.value;\r\n    }\r\n\r\n    function withdrawLiquidity(uint256 amount) public {\r\n        require(poolBalance[msg.sender] >= amount, \"Insufficient balance\");\r\n\r\n        poolBalance[msg.sender] -= amount;\r\n        payable(msg.sender).transfer(amount);\r\n    }\r\n}\r\n",
  "sourcePath": "D:\\YieldMaster\\yieldmaster\\yieldmaster-smart-contracts\\contracts\\LiquidityPool.sol",
  "compiler": {
    "name": "solc",
    "version": "0.8.0+commit.c7dfd78e.Emscripten.clang"
  },
  "schemaVersion": "3.4.16",
  "updatedAt": "2024-08-21T22:40:55.671Z",
  "networkType": "ethereum",
  "devdoc": {
    "kind": "dev",
    "methods": {},
    "version": 1
  },
  "userdoc": {
    "kind": "user",
    "methods": {},
    "version": 1
  }
}