{
  "contractName": "Staking",
  "abi": [
    {
      "inputs": [],
      "stateMutability": "nonpayable",
      "type": "constructor"
    },
    {
      "inputs": [
        {
          "internalType": "address",
          "name": "",
          "type": "address"
        }
      ],
      "name": "balances",
      "outputs": [
        {
          "internalType": "uint256",
          "name": "",
          "type": "uint256"
        }
      ],
      "stateMutability": "view",
      "type": "function",
      "constant": true
    },
    {
      "inputs": [],
      "name": "rewardRate",
      "outputs": [
        {
          "internalType": "uint256",
          "name": "",
          "type": "uint256"
        }
      ],
      "stateMutability": "view",
      "type": "function",
      "constant": true
    },
    {
      "inputs": [
        {
          "internalType": "address",
          "name": "",
          "type": "address"
        }
      ],
      "name": "stakingTime",
      "outputs": [
        {
          "internalType": "uint256",
          "name": "",
          "type": "uint256"
        }
      ],
      "stateMutability": "view",
      "type": "function",
      "constant": true
    },
    {
      "inputs": [],
      "name": "stake",
      "outputs": [],
      "stateMutability": "payable",
      "type": "function",
      "payable": true
    },
    {
      "inputs": [
        {
          "internalType": "address",
          "name": "staker",
          "type": "address"
        }
      ],
      "name": "calculateReward",
      "outputs": [
        {
          "internalType": "uint256",
          "name": "",
          "type": "uint256"
        }
      ],
      "stateMutability": "view",
      "type": "function",
      "constant": true
    },
    {
      "inputs": [
        {
          "internalType": "address",
          "name": "user",
          "type": "address"
        }
      ],
      "name": "getBalance",
      "outputs": [
        {
          "internalType": "uint256",
          "name": "",
          "type": "uint256"
        }
      ],
      "stateMutability": "view",
      "type": "function",
      "constant": true
    },
    {
      "inputs": [],
      "name": "withdraw",
      "outputs": [],
      "stateMutability": "nonpayable",
      "type": "function"
    }
  ],
  "bytecode": "0x6080604052606460025534801561001557600080fd5b5061087b806100256000396000f3fe6080604052600436106100705760003560e01c8063583d42fd1161004e578063583d42fd146100d35780637b0a47ee14610110578063d82e39621461013b578063f8b2cb4f1461017857610070565b806327e235e3146100755780633a4b66f1146100b25780633ccfd60b146100bc575b600080fd5b34801561008157600080fd5b5061009c6004803603810190610097919061055b565b6101b5565b6040516100a99190610653565b60405180910390f35b6100ba6101cd565b005b3480156100c857600080fd5b506100d16102ab565b005b3480156100df57600080fd5b506100fa60048036038101906100f5919061055b565b610423565b6040516101079190610653565b60405180910390f35b34801561011c57600080fd5b5061012561043b565b6040516101329190610653565b60405180910390f35b34801561014757600080fd5b50610162600480360381019061015d919061055b565b610441565b60405161016f9190610653565b60405180910390f35b34801561018457600080fd5b5061019f600480360381019061019a919061055b565b6104fe565b6040516101ac9190610653565b60405180910390f35b60006020528060005260406000206000915090505481565b60003411610210576040517f08c379a000000000000000000000000000000000000000000000000000000000815260040161020790610613565b60405180910390fd5b346000803373ffffffffffffffffffffffffffffffffffffffff1673ffffffffffffffffffffffffffffffffffffffff168152602001908152602001600020600082825461025e919061067f565b9250508190555042600160003373ffffffffffffffffffffffffffffffffffffffff1673ffffffffffffffffffffffffffffffffffffffff16815260200190815260200160002081905550565b60008060003373ffffffffffffffffffffffffffffffffffffffff1673ffffffffffffffffffffffffffffffffffffffff16815260200190815260200160002054905060008111610331576040517f08c379a000000000000000000000000000000000000000000000000000000000815260040161032890610633565b60405180910390fd5b600061033c33610441565b90506000818361034c919061067f565b905060008060003373ffffffffffffffffffffffffffffffffffffffff1673ffffffffffffffffffffffffffffffffffffffff168152602001908152602001600020819055506000600160003373ffffffffffffffffffffffffffffffffffffffff1673ffffffffffffffffffffffffffffffffffffffff168152602001908152602001600020819055503373ffffffffffffffffffffffffffffffffffffffff166108fc829081150290604051600060405180830381858888f1935050505015801561041d573d6000803e3d6000fd5b50505050565b60016020528060005260406000206000915090505481565b60025481565b600080600160008473ffffffffffffffffffffffffffffffffffffffff1673ffffffffffffffffffffffffffffffffffffffff168152602001908152602001600020544261048f9190610760565b9050620f4240600254826000808773ffffffffffffffffffffffffffffffffffffffff1673ffffffffffffffffffffffffffffffffffffffff168152602001908152602001600020546104e29190610706565b6104ec9190610706565b6104f691906106d5565b915050919050565b60008060008373ffffffffffffffffffffffffffffffffffffffff1673ffffffffffffffffffffffffffffffffffffffff168152602001908152602001600020549050919050565b6000813590506105558161082e565b92915050565b60006020828403121561056d57600080fd5b600061057b84828501610546565b91505092915050565b6000610591600e8361066e565b91507f43616e6e6f74207374616b6520300000000000000000000000000000000000006000830152602082019050919050565b60006105d160148361066e565b91507f496e73756666696369656e742062616c616e63650000000000000000000000006000830152602082019050919050565b61060d816107c6565b82525050565b6000602082019050818103600083015261062c81610584565b9050919050565b6000602082019050818103600083015261064c816105c4565b9050919050565b60006020820190506106686000830184610604565b92915050565b600082825260208201905092915050565b600061068a826107c6565b9150610695836107c6565b9250827fffffffffffffffffffffffffffffffffffffffffffffffffffffffffffffffff038211156106ca576106c96107d0565b5b828201905092915050565b60006106e0826107c6565b91506106eb836107c6565b9250826106fb576106fa6107ff565b5b828204905092915050565b6000610711826107c6565b915061071c836107c6565b9250817fffffffffffffffffffffffffffffffffffffffffffffffffffffffffffffffff0483118215151615610755576107546107d0565b5b828202905092915050565b600061076b826107c6565b9150610776836107c6565b925082821015610789576107886107d0565b5b828203905092915050565b600061079f826107a6565b9050919050565b600073ffffffffffffffffffffffffffffffffffffffff82169050919050565b6000819050919050565b7f4e487b7100000000000000000000000000000000000000000000000000000000600052601160045260246000fd5b7f4e487b7100000000000000000000000000000000000000000000000000000000600052601260045260246000fd5b61083781610794565b811461084257600080fd5b5056fea26469706673582212202cd2720a35eaac5b04801193806ab26ab1fda1d2c9fccfa07751ba8303a135ca64736f6c63430008000033",
  "immutableReferences": {},
  "source": "// SPDX-License-Identifier: MIT\r\npragma solidity ^0.8.0;\r\n\r\ncontract Staking {\r\n    mapping(address => uint256) public balances;\r\n    mapping(address => uint256) public stakingTime;\r\n\r\n    uint256 public rewardRate = 100; // Example reward rate\r\n\r\n    constructor() {\r\n        // Simple constructor to see if initialization is the issue\r\n    }\r\n\r\n    function stake() public payable {\r\n        require(msg.value > 0, \"Cannot stake 0\");\r\n\r\n        balances[msg.sender] += msg.value;\r\n        stakingTime[msg.sender] = block.timestamp;\r\n    }\r\n\r\n    function calculateReward(address staker) public view returns (uint256) {\r\n        uint256 stakedTime = block.timestamp - stakingTime[staker];\r\n        return (balances[staker] * stakedTime * rewardRate) / 1000000;\r\n    }\r\n\r\n    function getBalance(address user) public view returns (uint256) {\r\n        return balances[user];\r\n    }\r\n\r\n    function withdraw() public {\r\n        uint256 balance = balances[msg.sender];\r\n        require(balance > 0, \"Insufficient balance\");\r\n\r\n        uint256 reward = calculateReward(msg.sender);\r\n        uint256 totalAmount = balance + reward;\r\n\r\n        balances[msg.sender] = 0;\r\n        stakingTime[msg.sender] = 0;\r\n\r\n        payable(msg.sender).transfer(totalAmount);\r\n    }\r\n}\r\n",
  "sourcePath": "D:\\YieldMaster\\yieldmaster\\yieldmaster-smart-contracts\\contracts\\staking.sol",
  "compiler": {
    "name": "solc",
    "version": "0.8.0+commit.c7dfd78e.Emscripten.clang"
  },
  "schemaVersion": "3.4.16",
  "updatedAt": "2024-08-21T22:40:55.665Z",
  "networkType": "ethereum",
  "devdoc": {
    "kind": "dev",
    "methods": {},
    "version": 1
  },
  "userdoc": {
    "kind": "user",
    "methods": {},
    "version": 1
  }
}